{
  "_format": "hh-sol-artifact-1",
  "contractName": "RoboPunksMMO",
  "sourceName": "contracts/RoboPunksMMO.sol",
  "abi": [
    {
      "inputs": [],
      "stateMutability": "payable",
      "type": "constructor"
    },
    {
      "anonymous": false,
      "inputs": [
        {
          "indexed": true,
          "internalType": "address",
          "name": "owner",
          "type": "address"
        },
        {
          "indexed": true,
          "internalType": "address",
          "name": "approved",
          "type": "address"
        },
        {
          "indexed": true,
          "internalType": "uint256",
          "name": "tokenId",
          "type": "uint256"
        }
      ],
      "name": "Approval",
      "type": "event"
    },
    {
      "anonymous": false,
      "inputs": [
        {
          "indexed": true,
          "internalType": "address",
          "name": "owner",
          "type": "address"
        },
        {
          "indexed": true,
          "internalType": "address",
          "name": "operator",
          "type": "address"
        },
        {
          "indexed": false,
          "internalType": "bool",
          "name": "approved",
          "type": "bool"
        }
      ],
      "name": "ApprovalForAll",
      "type": "event"
    },
    {
      "anonymous": false,
      "inputs": [
        {
          "indexed": true,
          "internalType": "address",
          "name": "previousOwner",
          "type": "address"
        },
        {
          "indexed": true,
          "internalType": "address",
          "name": "newOwner",
          "type": "address"
        }
      ],
      "name": "OwnershipTransferred",
      "type": "event"
    },
    {
      "anonymous": false,
      "inputs": [
        {
          "indexed": true,
          "internalType": "address",
          "name": "from",
          "type": "address"
        },
        {
          "indexed": true,
          "internalType": "address",
          "name": "to",
          "type": "address"
        },
        {
          "indexed": true,
          "internalType": "uint256",
          "name": "tokenId",
          "type": "uint256"
        }
      ],
      "name": "Transfer",
      "type": "event"
    },
    {
      "inputs": [
        {
          "internalType": "address",
          "name": "to",
          "type": "address"
        },
        {
          "internalType": "uint256",
          "name": "tokenId",
          "type": "uint256"
        }
      ],
      "name": "approve",
      "outputs": [],
      "stateMutability": "nonpayable",
      "type": "function"
    },
    {
      "inputs": [
        {
          "internalType": "address",
          "name": "owner",
          "type": "address"
        }
      ],
      "name": "balanceOf",
      "outputs": [
        {
          "internalType": "uint256",
          "name": "",
          "type": "uint256"
        }
      ],
      "stateMutability": "view",
      "type": "function"
    },
    {
      "inputs": [
        {
          "internalType": "uint256",
          "name": "tokenId",
          "type": "uint256"
        }
      ],
      "name": "getApproved",
      "outputs": [
        {
          "internalType": "address",
          "name": "",
          "type": "address"
        }
      ],
      "stateMutability": "view",
      "type": "function"
    },
    {
      "inputs": [
        {
          "internalType": "address",
          "name": "owner",
          "type": "address"
        },
        {
          "internalType": "address",
          "name": "operator",
          "type": "address"
        }
      ],
      "name": "isApprovedForAll",
      "outputs": [
        {
          "internalType": "bool",
          "name": "",
          "type": "bool"
        }
      ],
      "stateMutability": "view",
      "type": "function"
    },
    {
      "inputs": [],
      "name": "isPublicMintEnabled",
      "outputs": [
        {
          "internalType": "bool",
          "name": "",
          "type": "bool"
        }
      ],
      "stateMutability": "view",
      "type": "function"
    },
    {
      "inputs": [],
      "name": "maxPerWallet",
      "outputs": [
        {
          "internalType": "uint256",
          "name": "",
          "type": "uint256"
        }
      ],
      "stateMutability": "view",
      "type": "function"
    },
    {
      "inputs": [],
      "name": "maxSupply",
      "outputs": [
        {
          "internalType": "uint256",
          "name": "",
          "type": "uint256"
        }
      ],
      "stateMutability": "view",
      "type": "function"
    },
    {
      "inputs": [
        {
          "internalType": "uint256",
          "name": "quantity_",
          "type": "uint256"
        }
      ],
      "name": "min",
      "outputs": [],
      "stateMutability": "payable",
      "type": "function"
    },
    {
      "inputs": [],
      "name": "minPrice",
      "outputs": [
        {
          "internalType": "uint256",
          "name": "",
          "type": "uint256"
        }
      ],
      "stateMutability": "view",
      "type": "function"
    },
    {
      "inputs": [],
      "name": "name",
      "outputs": [
        {
          "internalType": "string",
          "name": "",
          "type": "string"
        }
      ],
      "stateMutability": "view",
      "type": "function"
    },
    {
      "inputs": [],
      "name": "owner",
      "outputs": [
        {
          "internalType": "address",
          "name": "",
          "type": "address"
        }
      ],
      "stateMutability": "view",
      "type": "function"
    },
    {
      "inputs": [
        {
          "internalType": "uint256",
          "name": "tokenId",
          "type": "uint256"
        }
      ],
      "name": "ownerOf",
      "outputs": [
        {
          "internalType": "address",
          "name": "",
          "type": "address"
        }
      ],
      "stateMutability": "view",
      "type": "function"
    },
    {
      "inputs": [],
      "name": "renounceOwnership",
      "outputs": [],
      "stateMutability": "nonpayable",
      "type": "function"
    },
    {
      "inputs": [
        {
          "internalType": "address",
          "name": "from",
          "type": "address"
        },
        {
          "internalType": "address",
          "name": "to",
          "type": "address"
        },
        {
          "internalType": "uint256",
          "name": "tokenId",
          "type": "uint256"
        }
      ],
      "name": "safeTransferFrom",
      "outputs": [],
      "stateMutability": "nonpayable",
      "type": "function"
    },
    {
      "inputs": [
        {
          "internalType": "address",
          "name": "from",
          "type": "address"
        },
        {
          "internalType": "address",
          "name": "to",
          "type": "address"
        },
        {
          "internalType": "uint256",
          "name": "tokenId",
          "type": "uint256"
        },
        {
          "internalType": "bytes",
          "name": "_data",
          "type": "bytes"
        }
      ],
      "name": "safeTransferFrom",
      "outputs": [],
      "stateMutability": "nonpayable",
      "type": "function"
    },
    {
      "inputs": [
        {
          "internalType": "address",
          "name": "operator",
          "type": "address"
        },
        {
          "internalType": "bool",
          "name": "approved",
          "type": "bool"
        }
      ],
      "name": "setApprovalForAll",
      "outputs": [],
      "stateMutability": "nonpayable",
      "type": "function"
    },
    {
      "inputs": [
        {
          "internalType": "string",
          "name": "baseTokenUri_",
          "type": "string"
        }
      ],
      "name": "setBaseTokenUri",
      "outputs": [],
      "stateMutability": "nonpayable",
      "type": "function"
    },
    {
      "inputs": [
        {
          "internalType": "bool",
          "name": "isPublicMintEnabled_",
          "type": "bool"
        }
      ],
      "name": "setIsPublicMintEnable",
      "outputs": [],
      "stateMutability": "nonpayable",
      "type": "function"
    },
    {
      "inputs": [
        {
          "internalType": "bytes4",
          "name": "interfaceId",
          "type": "bytes4"
        }
      ],
      "name": "supportsInterface",
      "outputs": [
        {
          "internalType": "bool",
          "name": "",
          "type": "bool"
        }
      ],
      "stateMutability": "view",
      "type": "function"
    },
    {
      "inputs": [],
      "name": "symbol",
      "outputs": [
        {
          "internalType": "string",
          "name": "",
          "type": "string"
        }
      ],
      "stateMutability": "view",
      "type": "function"
    },
    {
      "inputs": [
        {
          "internalType": "uint256",
          "name": "tokenId_",
          "type": "uint256"
        }
      ],
      "name": "tokenURI",
      "outputs": [
        {
          "internalType": "string",
          "name": "",
          "type": "string"
        }
      ],
      "stateMutability": "view",
      "type": "function"
    },
    {
      "inputs": [],
      "name": "totalSypply",
      "outputs": [
        {
          "internalType": "uint256",
          "name": "",
          "type": "uint256"
        }
      ],
      "stateMutability": "view",
      "type": "function"
    },
    {
      "inputs": [
        {
          "internalType": "address",
          "name": "from",
          "type": "address"
        },
        {
          "internalType": "address",
          "name": "to",
          "type": "address"
        },
        {
          "internalType": "uint256",
          "name": "tokenId",
          "type": "uint256"
        }
      ],
      "name": "transferFrom",
      "outputs": [],
      "stateMutability": "nonpayable",
      "type": "function"
    },
    {
      "inputs": [
        {
          "internalType": "address",
          "name": "newOwner",
          "type": "address"
        }
      ],
      "name": "transferOwnership",
      "outputs": [],
      "stateMutability": "nonpayable",
      "type": "function"
    },
    {
      "inputs": [
        {
          "internalType": "address",
          "name": "",
          "type": "address"
        }
      ],
      "name": "walletMints",
      "outputs": [
        {
          "internalType": "uint256",
          "name": "",
          "type": "uint256"
        }
      ],
      "stateMutability": "view",
      "type": "function"
    },
    {
      "inputs": [],
      "name": "withdraWallet",
      "outputs": [
        {
          "internalType": "address payable",
          "name": "",
          "type": "address"
        }
      ],
      "stateMutability": "view",
      "type": "function"
    },
    {
      "inputs": [],
      "name": "withdraw",
      "outputs": [],
      "stateMutability": "nonpayable",
      "type": "function"
    }
  ],
  "bytecode": "0x60806040526040518060400160405280600b81526020017f4269676f646550756e6b730000000000000000000000000000000000000000008152506040518060400160405280600281526020017f4250000000000000000000000000000000000000000000000000000000000000815250816000908051906020019062000088929190620001c0565b508060019080519060200190620000a1929190620001c0565b505050620000c4620000b8620000f260201b60201c565b620000fa60201b60201c565b66470de4df8200006007819055506000600881905550620186a06009819055506003600a81905550620002d5565b600033905090565b6000600660009054906101000a900473ffffffffffffffffffffffffffffffffffffffff16905081600660006101000a81548173ffffffffffffffffffffffffffffffffffffffff021916908373ffffffffffffffffffffffffffffffffffffffff1602179055508173ffffffffffffffffffffffffffffffffffffffff168173ffffffffffffffffffffffffffffffffffffffff167f8be0079c531659141344cd1fd0a4f28419497f9722a3daafe3b4186f6b6457e060405160405180910390a35050565b828054620001ce9062000270565b90600052602060002090601f016020900481019282620001f257600085556200023e565b82601f106200020d57805160ff19168380011785556200023e565b828001600101855582156200023e579182015b828111156200023d57825182559160200191906001019062000220565b5b5090506200024d919062000251565b5090565b5b808211156200026c57600081600090555060010162000252565b5090565b600060028204905060018216806200028957607f821691505b60208210811415620002a0576200029f620002a6565b5b50919050565b7f4e487b7100000000000000000000000000000000000000000000000000000000600052602260045260246000fd5b61375580620002e56000396000f3fe60806040526004361061019c5760003560e01c8063715018a6116100ec578063c87b56dd1161008a578063e45be8eb11610064578063e45be8eb14610593578063e985e9c5146105be578063f0293fd3146105fb578063f2fde38b146106385761019c565b8063c87b56dd14610500578063cd5bbd201461053d578063d5abeb01146105685761019c565b806395d89b41116100c657806395d89b411461045a578063a22cb46514610485578063b88d4fde146104ae578063c45580d4146104d75761019c565b8063715018a6146103ef5780638da5cb5b1461040657806395652cfa146104315761019c565b80633ccfd60b11610159578063453c231011610133578063453c23101461032e57806354161217146103595780636352211e1461037557806370a08231146103b25761019c565b80633ccfd60b146102c357806340457d70146102da57806342842e0e146103055761019c565b80630116bc2d146101a157806301ffc9a7146101cc57806306fdde0314610209578063081812fc14610234578063095ea7b31461027157806323b872dd1461029a575b600080fd5b3480156101ad57600080fd5b506101b6610661565b6040516101c39190612a94565b60405180910390f35b3480156101d857600080fd5b506101f360048036038101906101ee919061248b565b610674565b6040516102009190612a94565b60405180910390f35b34801561021557600080fd5b5061021e610756565b60405161022b9190612aaf565b60405180910390f35b34801561024057600080fd5b5061025b60048036038101906102569190612522565b6107e8565b6040516102689190612a12565b60405180910390f35b34801561027d57600080fd5b5061029860048036038101906102939190612426565b61086d565b005b3480156102a657600080fd5b506102c160048036038101906102bc9190612320565b610985565b005b3480156102cf57600080fd5b506102d86109e5565b005b3480156102e657600080fd5b506102ef610b32565b6040516102fc9190612a2d565b60405180910390f35b34801561031157600080fd5b5061032c60048036038101906103279190612320565b610b58565b005b34801561033a57600080fd5b50610343610b78565b6040516103509190612d71565b60405180910390f35b610373600480360381019061036e9190612522565b610b7e565b005b34801561038157600080fd5b5061039c60048036038101906103979190612522565b610d4b565b6040516103a99190612a12565b60405180910390f35b3480156103be57600080fd5b506103d960048036038101906103d491906122bb565b610dfd565b6040516103e69190612d71565b60405180910390f35b3480156103fb57600080fd5b50610404610eb5565b005b34801561041257600080fd5b5061041b610f3d565b6040516104289190612a12565b60405180910390f35b34801561043d57600080fd5b50610458600480360381019061045391906124dd565b610f67565b005b34801561046657600080fd5b5061046f610ff9565b60405161047c9190612aaf565b60405180910390f35b34801561049157600080fd5b506104ac60048036038101906104a791906123ea565b61108b565b005b3480156104ba57600080fd5b506104d560048036038101906104d0919061236f565b6110a1565b005b3480156104e357600080fd5b506104fe60048036038101906104f99190612462565b611103565b005b34801561050c57600080fd5b5061052760048036038101906105229190612522565b61119c565b6040516105349190612aaf565b60405180910390f35b34801561054957600080fd5b50610552611218565b60405161055f9190612d71565b60405180910390f35b34801561057457600080fd5b5061057d61121e565b60405161058a9190612d71565b60405180910390f35b34801561059f57600080fd5b506105a8611224565b6040516105b59190612d71565b60405180910390f35b3480156105ca57600080fd5b506105e560048036038101906105e091906122e4565b61122a565b6040516105f29190612a94565b60405180910390f35b34801561060757600080fd5b50610622600480360381019061061d91906122bb565b6112be565b60405161062f9190612d71565b60405180910390f35b34801561064457600080fd5b5061065f600480360381019061065a91906122bb565b6112d6565b005b600b60009054906101000a900460ff1681565b60007f80ac58cd000000000000000000000000000000000000000000000000000000007bffffffffffffffffffffffffffffffffffffffffffffffffffffffff1916827bffffffffffffffffffffffffffffffffffffffffffffffffffffffff1916148061073f57507f5b5e139f000000000000000000000000000000000000000000000000000000007bffffffffffffffffffffffffffffffffffffffffffffffffffffffff1916827bffffffffffffffffffffffffffffffffffffffffffffffffffffffff1916145b8061074f575061074e826113ce565b5b9050919050565b60606000805461076590612fc8565b80601f016020809104026020016040519081016040528092919081815260200182805461079190612fc8565b80156107de5780601f106107b3576101008083540402835291602001916107de565b820191906000526020600020905b8154815290600101906020018083116107c157829003601f168201915b5050505050905090565b60006107f382611438565b610832576040517f08c379a000000000000000000000000000000000000000000000000000000000815260040161082990612cd1565b60405180910390fd5b6004600083815260200190815260200160002060009054906101000a900473ffffffffffffffffffffffffffffffffffffffff169050919050565b600061087882610d4b565b90508073ffffffffffffffffffffffffffffffffffffffff168373ffffffffffffffffffffffffffffffffffffffff1614156108e9576040517f08c379a00000000000000000000000000000000000000000000000000000000081526004016108e090612d11565b60405180910390fd5b8073ffffffffffffffffffffffffffffffffffffffff166109086114a4565b73ffffffffffffffffffffffffffffffffffffffff1614806109375750610936816109316114a4565b61122a565b5b610976576040517f08c379a000000000000000000000000000000000000000000000000000000000815260040161096d90612c31565b60405180910390fd5b61098083836114ac565b505050565b6109966109906114a4565b82611565565b6109d5576040517f08c379a00000000000000000000000000000000000000000000000000000000081526004016109cc90612d31565b60405180910390fd5b6109e0838383611643565b505050565b6109ed6114a4565b73ffffffffffffffffffffffffffffffffffffffff16610a0b610f3d565b73ffffffffffffffffffffffffffffffffffffffff1614610a61576040517f08c379a0000000000000000000000000000000000000000000000000000000008152600401610a5890612cf1565b60405180910390fd5b6000600d60009054906101000a900473ffffffffffffffffffffffffffffffffffffffff1673ffffffffffffffffffffffffffffffffffffffff1647604051610aa9906129fd565b60006040518083038185875af1925050503d8060008114610ae6576040519150601f19603f3d011682016040523d82523d6000602084013e610aeb565b606091505b5050905080610b2f576040517f08c379a0000000000000000000000000000000000000000000000000000000008152600401610b2690612cb1565b60405180910390fd5b50565b600d60009054906101000a900473ffffffffffffffffffffffffffffffffffffffff1681565b610b73838383604051806020016040528060008152506110a1565b505050565b600a5481565b600b60009054906101000a900460ff16610bcd576040517f08c379a0000000000000000000000000000000000000000000000000000000008152600401610bc490612b91565b60405180910390fd5b60075481163414610c13576040517f08c379a0000000000000000000000000000000000000000000000000000000008152600401610c0a90612ad1565b60405180910390fd5b60095481600854610c249190612e45565b1115610c65576040517f08c379a0000000000000000000000000000000000000000000000000000000008152600401610c5c90612c11565b60405180910390fd5b600a5481600e60003373ffffffffffffffffffffffffffffffffffffffff1673ffffffffffffffffffffffffffffffffffffffff16815260200190815260200160002054610cb39190612e45565b1115610cf4576040517f08c379a0000000000000000000000000000000000000000000000000000000008152600401610ceb90612b31565b60405180910390fd5b60005b81811015610d4757600081600854610d0f9190612e45565b905060086000815480929190610d249061302b565b9190505550610d3333826118aa565b508080610d3f9061302b565b915050610cf7565b5050565b6000806002600084815260200190815260200160002060009054906101000a900473ffffffffffffffffffffffffffffffffffffffff169050600073ffffffffffffffffffffffffffffffffffffffff168173ffffffffffffffffffffffffffffffffffffffff161415610df4576040517f08c379a0000000000000000000000000000000000000000000000000000000008152600401610deb90612c71565b60405180910390fd5b80915050919050565b60008073ffffffffffffffffffffffffffffffffffffffff168273ffffffffffffffffffffffffffffffffffffffff161415610e6e576040517f08c379a0000000000000000000000000000000000000000000000000000000008152600401610e6590612c51565b60405180910390fd5b600360008373ffffffffffffffffffffffffffffffffffffffff1673ffffffffffffffffffffffffffffffffffffffff168152602001908152602001600020549050919050565b610ebd6114a4565b73ffffffffffffffffffffffffffffffffffffffff16610edb610f3d565b73ffffffffffffffffffffffffffffffffffffffff1614610f31576040517f08c379a0000000000000000000000000000000000000000000000000000000008152600401610f2890612cf1565b60405180910390fd5b610f3b60006118c8565b565b6000600660009054906101000a900473ffffffffffffffffffffffffffffffffffffffff16905090565b610f6f6114a4565b73ffffffffffffffffffffffffffffffffffffffff16610f8d610f3d565b73ffffffffffffffffffffffffffffffffffffffff1614610fe3576040517f08c379a0000000000000000000000000000000000000000000000000000000008152600401610fda90612cf1565b60405180910390fd5b8181600c9190610ff49291906120fd565b505050565b60606001805461100890612fc8565b80601f016020809104026020016040519081016040528092919081815260200182805461103490612fc8565b80156110815780601f1061105657610100808354040283529160200191611081565b820191906000526020600020905b81548152906001019060200180831161106457829003601f168201915b5050505050905090565b61109d6110966114a4565b838361198e565b5050565b6110b26110ac6114a4565b83611565565b6110f1576040517f08c379a00000000000000000000000000000000000000000000000000000000081526004016110e890612d31565b60405180910390fd5b6110fd84848484611afb565b50505050565b61110b6114a4565b73ffffffffffffffffffffffffffffffffffffffff16611129610f3d565b73ffffffffffffffffffffffffffffffffffffffff161461117f576040517f08c379a000000000000000000000000000000000000000000000000000000000815260040161117690612cf1565b60405180910390fd5b80600b60006101000a81548160ff02191690831515021790555050565b60606111a782611438565b6111e6576040517f08c379a00000000000000000000000000000000000000000000000000000000081526004016111dd90612d51565b60405180910390fd5b600c6111f183611b57565b6040516020016112029291906129ce565b6040516020818303038152906040529050919050565b60085481565b60095481565b60075481565b6000600560008473ffffffffffffffffffffffffffffffffffffffff1673ffffffffffffffffffffffffffffffffffffffff16815260200190815260200160002060008373ffffffffffffffffffffffffffffffffffffffff1673ffffffffffffffffffffffffffffffffffffffff16815260200190815260200160002060009054906101000a900460ff16905092915050565b600e6020528060005260406000206000915090505481565b6112de6114a4565b73ffffffffffffffffffffffffffffffffffffffff166112fc610f3d565b73ffffffffffffffffffffffffffffffffffffffff1614611352576040517f08c379a000000000000000000000000000000000000000000000000000000000815260040161134990612cf1565b60405180910390fd5b600073ffffffffffffffffffffffffffffffffffffffff168173ffffffffffffffffffffffffffffffffffffffff1614156113c2576040517f08c379a00000000000000000000000000000000000000000000000000000000081526004016113b990612b11565b60405180910390fd5b6113cb816118c8565b50565b60007f01ffc9a7000000000000000000000000000000000000000000000000000000007bffffffffffffffffffffffffffffffffffffffffffffffffffffffff1916827bffffffffffffffffffffffffffffffffffffffffffffffffffffffff1916149050919050565b60008073ffffffffffffffffffffffffffffffffffffffff166002600084815260200190815260200160002060009054906101000a900473ffffffffffffffffffffffffffffffffffffffff1673ffffffffffffffffffffffffffffffffffffffff1614159050919050565b600033905090565b816004600083815260200190815260200160002060006101000a81548173ffffffffffffffffffffffffffffffffffffffff021916908373ffffffffffffffffffffffffffffffffffffffff160217905550808273ffffffffffffffffffffffffffffffffffffffff1661151f83610d4b565b73ffffffffffffffffffffffffffffffffffffffff167f8c5be1e5ebec7d5bd14f71427d1e84f3dd0314c0f7b2291e5b200ac8c7c3b92560405160405180910390a45050565b600061157082611438565b6115af576040517f08c379a00000000000000000000000000000000000000000000000000000000081526004016115a690612bf1565b60405180910390fd5b60006115ba83610d4b565b90508073ffffffffffffffffffffffffffffffffffffffff168473ffffffffffffffffffffffffffffffffffffffff1614806115fc57506115fb818561122a565b5b8061163a57508373ffffffffffffffffffffffffffffffffffffffff16611622846107e8565b73ffffffffffffffffffffffffffffffffffffffff16145b91505092915050565b8273ffffffffffffffffffffffffffffffffffffffff1661166382610d4b565b73ffffffffffffffffffffffffffffffffffffffff16146116b9576040517f08c379a00000000000000000000000000000000000000000000000000000000081526004016116b090612b51565b60405180910390fd5b600073ffffffffffffffffffffffffffffffffffffffff168273ffffffffffffffffffffffffffffffffffffffff161415611729576040517f08c379a000000000000000000000000000000000000000000000000000000000815260040161172090612bb1565b60405180910390fd5b611734838383611d04565b61173f6000826114ac565b6001600360008573ffffffffffffffffffffffffffffffffffffffff1673ffffffffffffffffffffffffffffffffffffffff168152602001908152602001600020600082825461178f9190612ecc565b925050819055506001600360008473ffffffffffffffffffffffffffffffffffffffff1673ffffffffffffffffffffffffffffffffffffffff16815260200190815260200160002060008282546117e69190612e45565b92505081905550816002600083815260200190815260200160002060006101000a81548173ffffffffffffffffffffffffffffffffffffffff021916908373ffffffffffffffffffffffffffffffffffffffff160217905550808273ffffffffffffffffffffffffffffffffffffffff168473ffffffffffffffffffffffffffffffffffffffff167fddf252ad1be2c89b69c2b068fc378daa952ba7f163c4a11628f55a4df523b3ef60405160405180910390a46118a5838383611d09565b505050565b6118c4828260405180602001604052806000815250611d0e565b5050565b6000600660009054906101000a900473ffffffffffffffffffffffffffffffffffffffff16905081600660006101000a81548173ffffffffffffffffffffffffffffffffffffffff021916908373ffffffffffffffffffffffffffffffffffffffff1602179055508173ffffffffffffffffffffffffffffffffffffffff168173ffffffffffffffffffffffffffffffffffffffff167f8be0079c531659141344cd1fd0a4f28419497f9722a3daafe3b4186f6b6457e060405160405180910390a35050565b8173ffffffffffffffffffffffffffffffffffffffff168373ffffffffffffffffffffffffffffffffffffffff1614156119fd576040517f08c379a00000000000000000000000000000000000000000000000000000000081526004016119f490612bd1565b60405180910390fd5b80600560008573ffffffffffffffffffffffffffffffffffffffff1673ffffffffffffffffffffffffffffffffffffffff16815260200190815260200160002060008473ffffffffffffffffffffffffffffffffffffffff1673ffffffffffffffffffffffffffffffffffffffff16815260200190815260200160002060006101000a81548160ff0219169083151502179055508173ffffffffffffffffffffffffffffffffffffffff168373ffffffffffffffffffffffffffffffffffffffff167f17307eab39ab6107e8899845ad3d59bd9653f200f220920489ca2b5937696c3183604051611aee9190612a94565b60405180910390a3505050565b611b06848484611643565b611b1284848484611d69565b611b51576040517f08c379a0000000000000000000000000000000000000000000000000000000008152600401611b4890612af1565b60405180910390fd5b50505050565b60606000821415611b9f576040518060400160405280600181526020017f30000000000000000000000000000000000000000000000000000000000000008152509050611cff565b600082905060005b60008214611bd1578080611bba9061302b565b915050600a82611bca9190612e9b565b9150611ba7565b60008167ffffffffffffffff811115611c13577f4e487b7100000000000000000000000000000000000000000000000000000000600052604160045260246000fd5b6040519080825280601f01601f191660200182016040528015611c455781602001600182028036833780820191505090505b5090505b60008514611cf857600182611c5e9190612ecc565b9150600a85611c6d9190613074565b6030611c799190612e45565b60f81b818381518110611cb5577f4e487b7100000000000000000000000000000000000000000000000000000000600052603260045260246000fd5b60200101907effffffffffffffffffffffffffffffffffffffffffffffffffffffffffffff1916908160001a905350600a85611cf19190612e9b565b9450611c49565b8093505050505b919050565b505050565b505050565b611d188383611f00565b611d256000848484611d69565b611d64576040517f08c379a0000000000000000000000000000000000000000000000000000000008152600401611d5b90612af1565b60405180910390fd5b505050565b6000611d8a8473ffffffffffffffffffffffffffffffffffffffff166120da565b15611ef3578373ffffffffffffffffffffffffffffffffffffffff1663150b7a02611db36114a4565b8786866040518563ffffffff1660e01b8152600401611dd59493929190612a48565b602060405180830381600087803b158015611def57600080fd5b505af1925050508015611e2057506040513d601f19601f82011682018060405250810190611e1d91906124b4565b60015b611ea3573d8060008114611e50576040519150601f19603f3d011682016040523d82523d6000602084013e611e55565b606091505b50600081511415611e9b576040517f08c379a0000000000000000000000000000000000000000000000000000000008152600401611e9290612af1565b60405180910390fd5b805181602001fd5b63150b7a0260e01b7bffffffffffffffffffffffffffffffffffffffffffffffffffffffff1916817bffffffffffffffffffffffffffffffffffffffffffffffffffffffff191614915050611ef8565b600190505b949350505050565b600073ffffffffffffffffffffffffffffffffffffffff168273ffffffffffffffffffffffffffffffffffffffff161415611f70576040517f08c379a0000000000000000000000000000000000000000000000000000000008152600401611f6790612c91565b60405180910390fd5b611f7981611438565b15611fb9576040517f08c379a0000000000000000000000000000000000000000000000000000000008152600401611fb090612b71565b60405180910390fd5b611fc560008383611d04565b6001600360008473ffffffffffffffffffffffffffffffffffffffff1673ffffffffffffffffffffffffffffffffffffffff16815260200190815260200160002060008282546120159190612e45565b92505081905550816002600083815260200190815260200160002060006101000a81548173ffffffffffffffffffffffffffffffffffffffff021916908373ffffffffffffffffffffffffffffffffffffffff160217905550808273ffffffffffffffffffffffffffffffffffffffff16600073ffffffffffffffffffffffffffffffffffffffff167fddf252ad1be2c89b69c2b068fc378daa952ba7f163c4a11628f55a4df523b3ef60405160405180910390a46120d660008383611d09565b5050565b6000808273ffffffffffffffffffffffffffffffffffffffff163b119050919050565b82805461210990612fc8565b90600052602060002090601f01602090048101928261212b5760008555612172565b82601f1061214457803560ff1916838001178555612172565b82800160010185558215612172579182015b82811115612171578235825591602001919060010190612156565b5b50905061217f9190612183565b5090565b5b8082111561219c576000816000905550600101612184565b5090565b60006121b36121ae84612db1565b612d8c565b9050828152602081018484840111156121cb57600080fd5b6121d6848285612f86565b509392505050565b6000813590506121ed816136c3565b92915050565b600081359050612202816136da565b92915050565b600081359050612217816136f1565b92915050565b60008151905061222c816136f1565b92915050565b600082601f83011261224357600080fd5b81356122538482602086016121a0565b91505092915050565b60008083601f84011261226e57600080fd5b8235905067ffffffffffffffff81111561228757600080fd5b60208301915083600182028301111561229f57600080fd5b9250929050565b6000813590506122b581613708565b92915050565b6000602082840312156122cd57600080fd5b60006122db848285016121de565b91505092915050565b600080604083850312156122f757600080fd5b6000612305858286016121de565b9250506020612316858286016121de565b9150509250929050565b60008060006060848603121561233557600080fd5b6000612343868287016121de565b9350506020612354868287016121de565b9250506040612365868287016122a6565b9150509250925092565b6000806000806080858703121561238557600080fd5b6000612393878288016121de565b94505060206123a4878288016121de565b93505060406123b5878288016122a6565b925050606085013567ffffffffffffffff8111156123d257600080fd5b6123de87828801612232565b91505092959194509250565b600080604083850312156123fd57600080fd5b600061240b858286016121de565b925050602061241c858286016121f3565b9150509250929050565b6000806040838503121561243957600080fd5b6000612447858286016121de565b9250506020612458858286016122a6565b9150509250929050565b60006020828403121561247457600080fd5b6000612482848285016121f3565b91505092915050565b60006020828403121561249d57600080fd5b60006124ab84828501612208565b91505092915050565b6000602082840312156124c657600080fd5b60006124d48482850161221d565b91505092915050565b600080602083850312156124f057600080fd5b600083013567ffffffffffffffff81111561250a57600080fd5b6125168582860161225c565b92509250509250929050565b60006020828403121561253457600080fd5b6000612542848285016122a6565b91505092915050565b61255481612f12565b82525050565b61256381612f00565b82525050565b61257281612f24565b82525050565b600061258382612df7565b61258d8185612e0d565b935061259d818560208601612f95565b6125a681613161565b840191505092915050565b60006125bc82612e02565b6125c68185612e29565b93506125d6818560208601612f95565b6125df81613161565b840191505092915050565b60006125f582612e02565b6125ff8185612e3a565b935061260f818560208601612f95565b80840191505092915050565b6000815461262881612fc8565b6126328186612e3a565b9450600182166000811461264d576001811461265e57612691565b60ff19831686528186019350612691565b61266785612de2565b60005b838110156126895781548189015260018201915060208101905061266a565b838801955050505b50505092915050565b60006126a7601183612e29565b91506126b282613172565b602082019050919050565b60006126ca603283612e29565b91506126d58261319b565b604082019050919050565b60006126ed602683612e29565b91506126f8826131ea565b604082019050919050565b6000612710600e83612e29565b915061271b82613239565b602082019050919050565b6000612733602583612e29565b915061273e82613262565b604082019050919050565b6000612756601c83612e29565b9150612761826132b1565b602082019050919050565b6000612779601283612e29565b9150612784826132da565b602082019050919050565b600061279c602483612e29565b91506127a782613303565b604082019050919050565b60006127bf601983612e29565b91506127ca82613352565b602082019050919050565b60006127e2602c83612e29565b91506127ed8261337b565b604082019050919050565b6000612805600883612e29565b9150612810826133ca565b602082019050919050565b6000612828603883612e29565b9150612833826133f3565b604082019050919050565b600061284b602a83612e29565b915061285682613442565b604082019050919050565b600061286e602983612e29565b915061287982613491565b604082019050919050565b6000612891602083612e29565b915061289c826134e0565b602082019050919050565b60006128b4601283612e29565b91506128bf82613509565b602082019050919050565b60006128d7602c83612e29565b91506128e282613532565b604082019050919050565b60006128fa600583612e3a565b915061290582613581565b600582019050919050565b600061291d602083612e29565b9150612928826135aa565b602082019050919050565b6000612940602183612e29565b915061294b826135d3565b604082019050919050565b6000612963600083612e1e565b915061296e82613622565b600082019050919050565b6000612986603183612e29565b915061299182613625565b604082019050919050565b60006129a9603883612e29565b91506129b482613674565b604082019050919050565b6129c881612f7c565b82525050565b60006129da828561261b565b91506129e682846125ea565b91506129f1826128ed565b91508190509392505050565b6000612a0882612956565b9150819050919050565b6000602082019050612a27600083018461255a565b92915050565b6000602082019050612a42600083018461254b565b92915050565b6000608082019050612a5d600083018761255a565b612a6a602083018661255a565b612a7760408301856129bf565b8181036060830152612a898184612578565b905095945050505050565b6000602082019050612aa96000830184612569565b92915050565b60006020820190508181036000830152612ac981846125b1565b905092915050565b60006020820190508181036000830152612aea8161269a565b9050919050565b60006020820190508181036000830152612b0a816126bd565b9050919050565b60006020820190508181036000830152612b2a816126e0565b9050919050565b60006020820190508181036000830152612b4a81612703565b9050919050565b60006020820190508181036000830152612b6a81612726565b9050919050565b60006020820190508181036000830152612b8a81612749565b9050919050565b60006020820190508181036000830152612baa8161276c565b9050919050565b60006020820190508181036000830152612bca8161278f565b9050919050565b60006020820190508181036000830152612bea816127b2565b9050919050565b60006020820190508181036000830152612c0a816127d5565b9050919050565b60006020820190508181036000830152612c2a816127f8565b9050919050565b60006020820190508181036000830152612c4a8161281b565b9050919050565b60006020820190508181036000830152612c6a8161283e565b9050919050565b60006020820190508181036000830152612c8a81612861565b9050919050565b60006020820190508181036000830152612caa81612884565b9050919050565b60006020820190508181036000830152612cca816128a7565b9050919050565b60006020820190508181036000830152612cea816128ca565b9050919050565b60006020820190508181036000830152612d0a81612910565b9050919050565b60006020820190508181036000830152612d2a81612933565b9050919050565b60006020820190508181036000830152612d4a81612979565b9050919050565b60006020820190508181036000830152612d6a8161299c565b9050919050565b6000602082019050612d8660008301846129bf565b92915050565b6000612d96612da7565b9050612da28282612ffa565b919050565b6000604051905090565b600067ffffffffffffffff821115612dcc57612dcb613132565b5b612dd582613161565b9050602081019050919050565b60008190508160005260206000209050919050565b600081519050919050565b600081519050919050565b600082825260208201905092915050565b600081905092915050565b600082825260208201905092915050565b600081905092915050565b6000612e5082612f7c565b9150612e5b83612f7c565b9250827fffffffffffffffffffffffffffffffffffffffffffffffffffffffffffffffff03821115612e9057612e8f6130a5565b5b828201905092915050565b6000612ea682612f7c565b9150612eb183612f7c565b925082612ec157612ec06130d4565b5b828204905092915050565b6000612ed782612f7c565b9150612ee283612f7c565b925082821015612ef557612ef46130a5565b5b828203905092915050565b6000612f0b82612f5c565b9050919050565b6000612f1d82612f5c565b9050919050565b60008115159050919050565b60007fffffffff0000000000000000000000000000000000000000000000000000000082169050919050565b600073ffffffffffffffffffffffffffffffffffffffff82169050919050565b6000819050919050565b82818337600083830152505050565b60005b83811015612fb3578082015181840152602081019050612f98565b83811115612fc2576000848401525b50505050565b60006002820490506001821680612fe057607f821691505b60208210811415612ff457612ff3613103565b5b50919050565b61300382613161565b810181811067ffffffffffffffff8211171561302257613021613132565b5b80604052505050565b600061303682612f7c565b91507fffffffffffffffffffffffffffffffffffffffffffffffffffffffffffffffff821415613069576130686130a5565b5b600182019050919050565b600061307f82612f7c565b915061308a83612f7c565b92508261309a576130996130d4565b5b828206905092915050565b7f4e487b7100000000000000000000000000000000000000000000000000000000600052601160045260246000fd5b7f4e487b7100000000000000000000000000000000000000000000000000000000600052601260045260246000fd5b7f4e487b7100000000000000000000000000000000000000000000000000000000600052602260045260246000fd5b7f4e487b7100000000000000000000000000000000000000000000000000000000600052604160045260246000fd5b6000601f19601f8301169050919050565b7f77726f6e67206d6d696e742076616c7565000000000000000000000000000000600082015250565b7f4552433732313a207472616e7366657220746f206e6f6e20455243373231526560008201527f63656976657220696d706c656d656e7465720000000000000000000000000000602082015250565b7f4f776e61626c653a206e6577206f776e657220697320746865207a65726f206160008201527f6464726573730000000000000000000000000000000000000000000000000000602082015250565b7f6d6178207065722077616c6c6574000000000000000000000000000000000000600082015250565b7f4552433732313a207472616e736665722066726f6d20696e636f72726563742060008201527f6f776e6572000000000000000000000000000000000000000000000000000000602082015250565b7f4552433732313a20746f6b656e20616c7265616479206d696e74656400000000600082015250565b7f6d696e74696e67206e6f7420656e61626c650000000000000000000000000000600082015250565b7f4552433732313a207472616e7366657220746f20746865207a65726f2061646460008201527f7265737300000000000000000000000000000000000000000000000000000000602082015250565b7f4552433732313a20617070726f766520746f2063616c6c657200000000000000600082015250565b7f4552433732313a206f70657261746f7220717565727920666f72206e6f6e657860008201527f697374656e7420746f6b656e0000000000000000000000000000000000000000602082015250565b7f736f6c64206f7574000000000000000000000000000000000000000000000000600082015250565b7f4552433732313a20617070726f76652063616c6c6572206973206e6f74206f7760008201527f6e6572206e6f7220617070726f76656420666f7220616c6c0000000000000000602082015250565b7f4552433732313a2062616c616e636520717565727920666f7220746865207a6560008201527f726f206164647265737300000000000000000000000000000000000000000000602082015250565b7f4552433732313a206f776e657220717565727920666f72206e6f6e657869737460008201527f656e7420746f6b656e0000000000000000000000000000000000000000000000602082015250565b7f4552433732313a206d696e7420746f20746865207a65726f2061646472657373600082015250565b7f6661696c6564207472616e73616374696f6e0000000000000000000000000000600082015250565b7f4552433732313a20617070726f76656420717565727920666f72206e6f6e657860008201527f697374656e7420746f6b656e0000000000000000000000000000000000000000602082015250565b7f2e6a736f6e000000000000000000000000000000000000000000000000000000600082015250565b7f4f776e61626c653a2063616c6c6572206973206e6f7420746865206f776e6572600082015250565b7f4552433732313a20617070726f76616c20746f2063757272656e74206f776e6560008201527f7200000000000000000000000000000000000000000000000000000000000000602082015250565b50565b7f4552433732313a207472616e736665722063616c6c6572206973206e6f74206f60008201527f776e6572206e6f7220617070726f766564000000000000000000000000000000602082015250565b7f4f20746f6b656e206e616f206578697374652c20656e74726520656d20636f6e60008201527f7461746f20636f6d206f20646573656e766f6c7665646f720000000000000000602082015250565b6136cc81612f00565b81146136d757600080fd5b50565b6136e381612f24565b81146136ee57600080fd5b50565b6136fa81612f30565b811461370557600080fd5b50565b61371181612f7c565b811461371c57600080fd5b5056fea2646970667358221220ca055c57952df9aa71870661d041d8a6be18d4dfed63c7b3a8e8a3e55d1d674164736f6c63430008040033",
  "linkReferences": {},
  "deployedLinkReferences": {}
}